:020000001628C0
:0E0006008312031323088A00220882000800D8
:1000140003208A110A128000840AA20A0319A30A7F
:08002400F003031D0A28080087
:10002C0083120313A0010130A10083168E15073033
:10003C0083129F00FF308316850086018312860190
:10004C00051C57280730200203183D28210886007C
:10005C000330FB000830FC007730FD00FD0B34282A
:10006C00FC0B3428FB0B3428A10D211051280E3029
:10007C00200203185128210886000330FB000830A9
:10008C00FC007730FD00FD0B4928FC0B4928FB0BCD
:10009C004928A10CA113A00A20080E3A031D5728C9
:0600AC00A00126285828DF
:02400E00182177
:00000001FF
