:020000001628C0
:0E0006008312031322088A00210882000800DA
:1000140003208A110A128000840AA10A0319A20A81
:08002400F003031D0A28080087
:10002C00083083120313A00083168E150730831239
:10003C009F00FF30831685008601831220088600FE
:10004C00051835282008F100F10CF1137108A000F7
:10005C007108003A031D34288030A0004128200884
:10006C00F100F10D71107108A0007108003A031D28
:10007C0041280130A000200886000330FB00083026
:10008C00FC007730FD00FD0B4928FC0B4928FB0BCD
:06009C0049282628502827
:02400E00182177
:00000001FF
